{
	"data": {
		"bytecode": {
			"linkReferences": {},
			"object": "6080604052348015600e575f5ffd5b5061119f8061001c5f395ff3fe608060405260043610610054575f3560e01c8063107046bd1461005857806315ee4df11461009757806336fbad26146100bf578063441a3e70146100e9578063f14faf6f14610111578063f500f2661461012d575b5f5ffd5b348015610063575f5ffd5b5061007e60048036038101906100799190610815565b610155565b60405161008e94939291906108fe565b60405180910390f35b3480156100a2575f5ffd5b506100bd60048036038101906100b89190610a7b565b6102ab565b005b3480156100ca575f5ffd5b506100d36103d4565b6040516100e09190610ac2565b60405180910390f35b3480156100f4575f5ffd5b5061010f600480360381019061010a9190610adb565b6103da565b005b61012b60048036038101906101269190610815565b6105c9565b005b348015610138575f5ffd5b50610153600480360381019061014e9190610b19565b610684565b005b5f602052805f5260405f205f91509050805f015f9054906101000a900473ffffffffffffffffffffffffffffffffffffffff169080600101805461019890610ba0565b80601f01602080910402602001604051908101604052809291908181526020018280546101c490610ba0565b801561020f5780601f106101e65761010080835404028352916020019161020f565b820191905f5260205f20905b8154815290600101906020018083116101f257829003601f168201915b50505050509080600201549080600301805461022a90610ba0565b80601f016020809104026020016040519081016040528092919081815260200182805461025690610ba0565b80156102a15780601f10610278576101008083540402835291602001916102a1565b820191905f5260205f20905b81548152906001019060200180831161028457829003601f168201915b5050505050905084565b60015f8154809291906102bd90610bfd565b919050555060405180608001604052803373ffffffffffffffffffffffffffffffffffffffff1681526020018281526020015f815260200160405180602001604052805f8152508152505f5f60015481526020019081526020015f205f820151815f015f6101000a81548173ffffffffffffffffffffffffffffffffffffffff021916908373ffffffffffffffffffffffffffffffffffffffff16021790555060208201518160010190816103729190610de4565b506040820151816002015560608201518160030190816103929190610de4565b509050507f1ff0eb8cf84684504bf970f9b986ee7a20bb1b1d3733266f2eaa15dfce21ca51600154826040516103c9929190610eb3565b60405180910390a150565b60015481565b5f821180156103eb57506001548211155b61042a576040517f08c379a000000000000000000000000000000000000000000000000000000000815260040161042190610f2b565b60405180910390fd5b5f5f8381526020019081526020015f205f015f9054906101000a900473ffffffffffffffffffffffffffffffffffffffff1673ffffffffffffffffffffffffffffffffffffffff163373ffffffffffffffffffffffffffffffffffffffff16146104c9576040517f08c379a00000000000000000000000000000000000000000000000000000000081526004016104c090610f93565b60405180910390fd5b805f5f8481526020019081526020015f2060020154101561051f576040517f08c379a000000000000000000000000000000000000000000000000000000000815260040161051690610ffb565b60405180910390fd5b805f5f8481526020019081526020015f206002015f8282546105419190611019565b925050819055503373ffffffffffffffffffffffffffffffffffffffff166108fc8290811502906040515f60405180830381858888f1935050505015801561058b573d5f5f3e3d5ffd5b507fbf2ed60bd5b5965d685680c01195c9514e4382e28e3a5a2d2d5244bf59411b9382826040516105bd92919061104c565b60405180910390a15050565b5f811180156105da57506001548111155b610619576040517f08c379a000000000000000000000000000000000000000000000000000000000815260040161061090610f2b565b60405180910390fd5b345f5f8381526020019081526020015f206002015f82825461063b9190611073565b925050819055507fc5b4df142a4930e9f5f4ae999caff9bc2eee2deb14046ac4bff24d1c730962ea8133345f5f1b60405161067994939291906110be565b60405180910390a150565b5f8211801561069557506001548211155b6106d4576040517f08c379a00000000000000000000000000000000000000000000000000000000081526004016106cb90610f2b565b60405180910390fd5b5f5f8381526020019081526020015f205f015f9054906101000a900473ffffffffffffffffffffffffffffffffffffffff1673ffffffffffffffffffffffffffffffffffffffff163373ffffffffffffffffffffffffffffffffffffffff1614610773576040517f08c379a000000000000000000000000000000000000000000000000000000000815260040161076a9061114b565b60405180910390fd5b805f5f8481526020019081526020015f2060030190816107939190610de4565b507f1ff0eb8cf84684504bf970f9b986ee7a20bb1b1d3733266f2eaa15dfce21ca5182826040516107c5929190610eb3565b60405180910390a15050565b5f604051905090565b5f5ffd5b5f5ffd5b5f819050919050565b6107f4816107e2565b81146107fe575f5ffd5b50565b5f8135905061080f816107eb565b92915050565b5f6020828403121561082a576108296107da565b5b5f61083784828501610801565b91505092915050565b5f73ffffffffffffffffffffffffffffffffffffffff82169050919050565b5f61086982610840565b9050919050565b6108798161085f565b82525050565b5f81519050919050565b5f82825260208201905092915050565b8281835e5f83830152505050565b5f601f19601f8301169050919050565b5f6108c18261087f565b6108cb8185610889565b93506108db818560208601610899565b6108e4816108a7565b840191505092915050565b6108f8816107e2565b82525050565b5f6080820190506109115f830187610870565b818103602083015261092381866108b7565b905061093260408301856108ef565b818103606083015261094481846108b7565b905095945050505050565b5f5ffd5b5f5ffd5b7f4e487b71000000000000000000000000000000000000000000000000000000005f52604160045260245ffd5b61098d826108a7565b810181811067ffffffffffffffff821117156109ac576109ab610957565b5b80604052505050565b5f6109be6107d1565b90506109ca8282610984565b919050565b5f67ffffffffffffffff8211156109e9576109e8610957565b5b6109f2826108a7565b9050602081019050919050565b828183375f83830152505050565b5f610a1f610a1a846109cf565b6109b5565b905082815260208101848484011115610a3b57610a3a610953565b5b610a468482856109ff565b509392505050565b5f82601f830112610a6257610a6161094f565b5b8135610a72848260208601610a0d565b91505092915050565b5f60208284031215610a9057610a8f6107da565b5b5f82013567ffffffffffffffff811115610aad57610aac6107de565b5b610ab984828501610a4e565b91505092915050565b5f602082019050610ad55f8301846108ef565b92915050565b5f5f60408385031215610af157610af06107da565b5b5f610afe85828601610801565b9250506020610b0f85828601610801565b9150509250929050565b5f5f60408385031215610b2f57610b2e6107da565b5b5f610b3c85828601610801565b925050602083013567ffffffffffffffff811115610b5d57610b5c6107de565b5b610b6985828601610a4e565b9150509250929050565b7f4e487b71000000000000000000000000000000000000000000000000000000005f52602260045260245ffd5b5f6002820490506001821680610bb757607f821691505b602082108103610bca57610bc9610b73565b5b50919050565b7f4e487b71000000000000000000000000000000000000000000000000000000005f52601160045260245ffd5b5f610c07826107e2565b91507fffffffffffffffffffffffffffffffffffffffffffffffffffffffffffffffff8203610c3957610c38610bd0565b5b600182019050919050565b5f819050815f5260205f209050919050565b5f6020601f8301049050919050565b5f82821b905092915050565b5f60088302610ca07fffffffffffffffffffffffffffffffffffffffffffffffffffffffffffffffff82610c65565b610caa8683610c65565b95508019841693508086168417925050509392505050565b5f819050919050565b5f610ce5610ce0610cdb846107e2565b610cc2565b6107e2565b9050919050565b5f819050919050565b610cfe83610ccb565b610d12610d0a82610cec565b848454610c71565b825550505050565b5f5f905090565b610d29610d1a565b610d34818484610cf5565b505050565b5b81811015610d5757610d4c5f82610d21565b600181019050610d3a565b5050565b601f821115610d9c57610d6d81610c44565b610d7684610c56565b81016020851015610d85578190505b610d99610d9185610c56565b830182610d39565b50505b505050565b5f82821c905092915050565b5f610dbc5f1984600802610da1565b1980831691505092915050565b5f610dd48383610dad565b9150826002028217905092915050565b610ded8261087f565b67ffffffffffffffff811115610e0657610e05610957565b5b610e108254610ba0565b610e1b828285610d5b565b5f60209050601f831160018114610e4c575f8415610e3a578287015190505b610e448582610dc9565b865550610eab565b601f198416610e5a86610c44565b5f5b82811015610e8157848901518255600182019150602085019450602081019050610e5c565b86831015610e9e5784890151610e9a601f891682610dad565b8355505b6001600288020188555050505b505050505050565b5f604082019050610ec65f8301856108ef565b8181036020830152610ed881846108b7565b90509392505050565b7f496e76616c69642070726f6a65637420494400000000000000000000000000005f82015250565b5f610f15601283610889565b9150610f2082610ee1565b602082019050919050565b5f6020820190508181035f830152610f4281610f09565b9050919050565b7f4f6e6c79206f776e65722063616e2077697468647261770000000000000000005f82015250565b5f610f7d601783610889565b9150610f8882610f49565b602082019050919050565b5f6020820190508181035f830152610faa81610f71565b9050919050565b7f496e73756666696369656e742062616c616e63650000000000000000000000005f82015250565b5f610fe5601483610889565b9150610ff082610fb1565b602082019050919050565b5f6020820190508181035f83015261101281610fd9565b9050919050565b5f611023826107e2565b915061102e836107e2565b925082820390508181111561104657611045610bd0565b5b92915050565b5f60408201905061105f5f8301856108ef565b61106c60208301846108ef565b9392505050565b5f61107d826107e2565b9150611088836107e2565b92508282019050808211156110a05761109f610bd0565b5b92915050565b5f819050919050565b6110b8816110a6565b82525050565b5f6080820190506110d15f8301876108ef565b6110de6020830186610870565b6110eb60408301856108ef565b6110f860608301846110af565b95945050505050565b7f4f6e6c79206f776e65722063616e207570646174652070726f6f6600000000005f82015250565b5f611135601b83610889565b915061114082611101565b602082019050919050565b5f6020820190508181035f83015261116281611129565b905091905056fea264697066735822122075d17c5402cb095ecc344377938dd5faca5de9d8c77cad2e36b6042f7b1cecba64736f6c634300081e0033",
			"opcodes": "PUSH1 0x80 PUSH1 0x40 MSTORE CALLVALUE DUP1 ISZERO PUSH1 0xE JUMPI PUSH0 PUSH0 REVERT JUMPDEST POP PUSH2 0x119F DUP1 PUSH2 0x1C PUSH0 CODECOPY PUSH0 RETURN INVALID PUSH1 0x80 PUSH1 0x40 MSTORE PUSH1 0x4 CALLDATASIZE LT PUSH2 0x54 JUMPI PUSH0 CALLDATALOAD PUSH1 0xE0 SHR DUP1 PUSH4 0x107046BD EQ PUSH2 0x58 JUMPI DUP1 PUSH4 0x15EE4DF1 EQ PUSH2 0x97 JUMPI DUP1 PUSH4 0x36FBAD26 EQ PUSH2 0xBF JUMPI DUP1 PUSH4 0x441A3E70 EQ PUSH2 0xE9 JUMPI DUP1 PUSH4 0xF14FAF6F EQ PUSH2 0x111 JUMPI DUP1 PUSH4 0xF500F266 EQ PUSH2 0x12D JUMPI JUMPDEST PUSH0 PUSH0 REVERT JUMPDEST CALLVALUE DUP1 ISZERO PUSH2 0x63 JUMPI PUSH0 PUSH0 REVERT JUMPDEST POP PUSH2 0x7E PUSH1 0x4 DUP1 CALLDATASIZE SUB DUP2 ADD SWAP1 PUSH2 0x79 SWAP2 SWAP1 PUSH2 0x815 JUMP JUMPDEST PUSH2 0x155 JUMP JUMPDEST PUSH1 0x40 MLOAD PUSH2 0x8E SWAP5 SWAP4 SWAP3 SWAP2 SWAP1 PUSH2 0x8FE JUMP JUMPDEST PUSH1 0x40 MLOAD DUP1 SWAP2 SUB SWAP1 RETURN JUMPDEST CALLVALUE DUP1 ISZERO PUSH2 0xA2 JUMPI PUSH0 PUSH0 REVERT JUMPDEST POP PUSH2 0xBD PUSH1 0x4 DUP1 CALLDATASIZE SUB DUP2 ADD SWAP1 PUSH2 0xB8 SWAP2 SWAP1 PUSH2 0xA7B JUMP JUMPDEST PUSH2 0x2AB JUMP JUMPDEST STOP JUMPDEST CALLVALUE DUP1 ISZERO PUSH2 0xCA JUMPI PUSH0 PUSH0 REVERT JUMPDEST POP PUSH2 0xD3 PUSH2 0x3D4 JUMP JUMPDEST PUSH1 0x40 MLOAD PUSH2 0xE0 SWAP2 SWAP1 PUSH2 0xAC2 JUMP JUMPDEST PUSH1 0x40 MLOAD DUP1 SWAP2 SUB SWAP1 RETURN JUMPDEST CALLVALUE DUP1 ISZERO PUSH2 0xF4 JUMPI PUSH0 PUSH0 REVERT JUMPDEST POP PUSH2 0x10F PUSH1 0x4 DUP1 CALLDATASIZE SUB DUP2 ADD SWAP1 PUSH2 0x10A SWAP2 SWAP1 PUSH2 0xADB JUMP JUMPDEST PUSH2 0x3DA JUMP JUMPDEST STOP JUMPDEST PUSH2 0x12B PUSH1 0x4 DUP1 CALLDATASIZE SUB DUP2 ADD SWAP1 PUSH2 0x126 SWAP2 SWAP1 PUSH2 0x815 JUMP JUMPDEST PUSH2 0x5C9 JUMP JUMPDEST STOP JUMPDEST CALLVALUE DUP1 ISZERO PUSH2 0x138 JUMPI PUSH0 PUSH0 REVERT JUMPDEST POP PUSH2 0x153 PUSH1 0x4 DUP1 CALLDATASIZE SUB DUP2 ADD SWAP1 PUSH2 0x14E SWAP2 SWAP1 PUSH2 0xB19 JUMP JUMPDEST PUSH2 0x684 JUMP JUMPDEST STOP JUMPDEST PUSH0 PUSH1 0x20 MSTORE DUP1 PUSH0 MSTORE PUSH1 0x40 PUSH0 KECCAK256 PUSH0 SWAP2 POP SWAP1 POP DUP1 PUSH0 ADD PUSH0 SWAP1 SLOAD SWAP1 PUSH2 0x100 EXP SWAP1 DIV PUSH20 0xFFFFFFFFFFFFFFFFFFFFFFFFFFFFFFFFFFFFFFFF AND SWAP1 DUP1 PUSH1 0x1 ADD DUP1 SLOAD PUSH2 0x198 SWAP1 PUSH2 0xBA0 JUMP JUMPDEST DUP1 PUSH1 0x1F ADD PUSH1 0x20 DUP1 SWAP2 DIV MUL PUSH1 0x20 ADD PUSH1 0x40 MLOAD SWAP1 DUP2 ADD PUSH1 0x40 MSTORE DUP1 SWAP3 SWAP2 SWAP1 DUP2 DUP2 MSTORE PUSH1 0x20 ADD DUP3 DUP1 SLOAD PUSH2 0x1C4 SWAP1 PUSH2 0xBA0 JUMP JUMPDEST DUP1 ISZERO PUSH2 0x20F JUMPI DUP1 PUSH1 0x1F LT PUSH2 0x1E6 JUMPI PUSH2 0x100 DUP1 DUP4 SLOAD DIV MUL DUP4 MSTORE SWAP2 PUSH1 0x20 ADD SWAP2 PUSH2 0x20F JUMP JUMPDEST DUP3 ADD SWAP2 SWAP1 PUSH0 MSTORE PUSH1 0x20 PUSH0 KECCAK256 SWAP1 JUMPDEST DUP2 SLOAD DUP2 MSTORE SWAP1 PUSH1 0x1 ADD SWAP1 PUSH1 0x20 ADD DUP1 DUP4 GT PUSH2 0x1F2 JUMPI DUP3 SWAP1 SUB PUSH1 0x1F AND DUP3 ADD SWAP2 JUMPDEST POP POP POP POP POP SWAP1 DUP1 PUSH1 0x2 ADD SLOAD SWAP1 DUP1 PUSH1 0x3 ADD DUP1 SLOAD PUSH2 0x22A SWAP1 PUSH2 0xBA0 JUMP JUMPDEST DUP1 PUSH1 0x1F ADD PUSH1 0x20 DUP1 SWAP2 DIV MUL PUSH1 0x20 ADD PUSH1 0x40 MLOAD SWAP1 DUP2 ADD PUSH1 0x40 MSTORE DUP1 SWAP3 SWAP2 SWAP1 DUP2 DUP2 MSTORE PUSH1 0x20 ADD DUP3 DUP1 SLOAD PUSH2 0x256 SWAP1 PUSH2 0xBA0 JUMP JUMPDEST DUP1 ISZERO PUSH2 0x2A1 JUMPI DUP1 PUSH1 0x1F LT PUSH2 0x278 JUMPI PUSH2 0x100 DUP1 DUP4 SLOAD DIV MUL DUP4 MSTORE SWAP2 PUSH1 0x20 ADD SWAP2 PUSH2 0x2A1 JUMP JUMPDEST DUP3 ADD SWAP2 SWAP1 PUSH0 MSTORE PUSH1 0x20 PUSH0 KECCAK256 SWAP1 JUMPDEST DUP2 SLOAD DUP2 MSTORE SWAP1 PUSH1 0x1 ADD SWAP1 PUSH1 0x20 ADD DUP1 DUP4 GT PUSH2 0x284 JUMPI DUP3 SWAP1 SUB PUSH1 0x1F AND DUP3 ADD SWAP2 JUMPDEST POP POP POP POP POP SWAP1 POP DUP5 JUMP JUMPDEST PUSH1 0x1 PUSH0 DUP2 SLOAD DUP1 SWAP3 SWAP2 SWAP1 PUSH2 0x2BD SWAP1 PUSH2 0xBFD JUMP JUMPDEST SWAP2 SWAP1 POP SSTORE POP PUSH1 0x40 MLOAD DUP1 PUSH1 0x80 ADD PUSH1 0x40 MSTORE DUP1 CALLER PUSH20 0xFFFFFFFFFFFFFFFFFFFFFFFFFFFFFFFFFFFFFFFF AND DUP2 MSTORE PUSH1 0x20 ADD DUP3 DUP2 MSTORE PUSH1 0x20 ADD PUSH0 DUP2 MSTORE PUSH1 0x20 ADD PUSH1 0x40 MLOAD DUP1 PUSH1 0x20 ADD PUSH1 0x40 MSTORE DUP1 PUSH0 DUP2 MSTORE POP DUP2 MSTORE POP PUSH0 PUSH0 PUSH1 0x1 SLOAD DUP2 MSTORE PUSH1 0x20 ADD SWAP1 DUP2 MSTORE PUSH1 0x20 ADD PUSH0 KECCAK256 PUSH0 DUP3 ADD MLOAD DUP2 PUSH0 ADD PUSH0 PUSH2 0x100 EXP DUP2 SLOAD DUP2 PUSH20 0xFFFFFFFFFFFFFFFFFFFFFFFFFFFFFFFFFFFFFFFF MUL NOT AND SWAP1 DUP4 PUSH20 0xFFFFFFFFFFFFFFFFFFFFFFFFFFFFFFFFFFFFFFFF AND MUL OR SWAP1 SSTORE POP PUSH1 0x20 DUP3 ADD MLOAD DUP2 PUSH1 0x1 ADD SWAP1 DUP2 PUSH2 0x372 SWAP2 SWAP1 PUSH2 0xDE4 JUMP JUMPDEST POP PUSH1 0x40 DUP3 ADD MLOAD DUP2 PUSH1 0x2 ADD SSTORE PUSH1 0x60 DUP3 ADD MLOAD DUP2 PUSH1 0x3 ADD SWAP1 DUP2 PUSH2 0x392 SWAP2 SWAP1 PUSH2 0xDE4 JUMP JUMPDEST POP SWAP1 POP POP PUSH32 0x1FF0EB8CF84684504BF970F9B986EE7A20BB1B1D3733266F2EAA15DFCE21CA51 PUSH1 0x1 SLOAD DUP3 PUSH1 0x40 MLOAD PUSH2 0x3C9 SWAP3 SWAP2 SWAP1 PUSH2 0xEB3 JUMP JUMPDEST PUSH1 0x40 MLOAD DUP1 SWAP2 SUB SWAP1 LOG1 POP JUMP JUMPDEST PUSH1 0x1 SLOAD DUP2 JUMP JUMPDEST PUSH0 DUP3 GT DUP1 ISZERO PUSH2 0x3EB JUMPI POP PUSH1 0x1 SLOAD DUP3 GT ISZERO JUMPDEST PUSH2 0x42A JUMPI PUSH1 0x40 MLOAD PUSH32 0x8C379A000000000000000000000000000000000000000000000000000000000 DUP2 MSTORE PUSH1 0x4 ADD PUSH2 0x421 SWAP1 PUSH2 0xF2B JUMP JUMPDEST PUSH1 0x40 MLOAD DUP1 SWAP2 SUB SWAP1 REVERT JUMPDEST PUSH0 PUSH0 DUP4 DUP2 MSTORE PUSH1 0x20 ADD SWAP1 DUP2 MSTORE PUSH1 0x20 ADD PUSH0 KECCAK256 PUSH0 ADD PUSH0 SWAP1 SLOAD SWAP1 PUSH2 0x100 EXP SWAP1 DIV PUSH20 0xFFFFFFFFFFFFFFFFFFFFFFFFFFFFFFFFFFFFFFFF AND PUSH20 0xFFFFFFFFFFFFFFFFFFFFFFFFFFFFFFFFFFFFFFFF AND CALLER PUSH20 0xFFFFFFFFFFFFFFFFFFFFFFFFFFFFFFFFFFFFFFFF AND EQ PUSH2 0x4C9 JUMPI PUSH1 0x40 MLOAD PUSH32 0x8C379A000000000000000000000000000000000000000000000000000000000 DUP2 MSTORE PUSH1 0x4 ADD PUSH2 0x4C0 SWAP1 PUSH2 0xF93 JUMP JUMPDEST PUSH1 0x40 MLOAD DUP1 SWAP2 SUB SWAP1 REVERT JUMPDEST DUP1 PUSH0 PUSH0 DUP5 DUP2 MSTORE PUSH1 0x20 ADD SWAP1 DUP2 MSTORE PUSH1 0x20 ADD PUSH0 KECCAK256 PUSH1 0x2 ADD SLOAD LT ISZERO PUSH2 0x51F JUMPI PUSH1 0x40 MLOAD PUSH32 0x8C379A000000000000000000000000000000000000000000000000000000000 DUP2 MSTORE PUSH1 0x4 ADD PUSH2 0x516 SWAP1 PUSH2 0xFFB JUMP JUMPDEST PUSH1 0x40 MLOAD DUP1 SWAP2 SUB SWAP1 REVERT JUMPDEST DUP1 PUSH0 PUSH0 DUP5 DUP2 MSTORE PUSH1 0x20 ADD SWAP1 DUP2 MSTORE PUSH1 0x20 ADD PUSH0 KECCAK256 PUSH1 0x2 ADD PUSH0 DUP3 DUP3 SLOAD PUSH2 0x541 SWAP2 SWAP1 PUSH2 0x1019 JUMP JUMPDEST SWAP3 POP POP DUP2 SWAP1 SSTORE POP CALLER PUSH20 0xFFFFFFFFFFFFFFFFFFFFFFFFFFFFFFFFFFFFFFFF AND PUSH2 0x8FC DUP3 SWAP1 DUP2 ISZERO MUL SWAP1 PUSH1 0x40 MLOAD PUSH0 PUSH1 0x40 MLOAD DUP1 DUP4 SUB DUP2 DUP6 DUP9 DUP9 CALL SWAP4 POP POP POP POP ISZERO DUP1 ISZERO PUSH2 0x58B JUMPI RETURNDATASIZE PUSH0 PUSH0 RETURNDATACOPY RETURNDATASIZE PUSH0 REVERT JUMPDEST POP PUSH32 0xBF2ED60BD5B5965D685680C01195C9514E4382E28E3A5A2D2D5244BF59411B93 DUP3 DUP3 PUSH1 0x40 MLOAD PUSH2 0x5BD SWAP3 SWAP2 SWAP1 PUSH2 0x104C JUMP JUMPDEST PUSH1 0x40 MLOAD DUP1 SWAP2 SUB SWAP1 LOG1 POP POP JUMP JUMPDEST PUSH0 DUP2 GT DUP1 ISZERO PUSH2 0x5DA JUMPI POP PUSH1 0x1 SLOAD DUP2 GT ISZERO JUMPDEST PUSH2 0x619 JUMPI PUSH1 0x40 MLOAD PUSH32 0x8C379A000000000000000000000000000000000000000000000000000000000 DUP2 MSTORE PUSH1 0x4 ADD PUSH2 0x610 SWAP1 PUSH2 0xF2B JUMP JUMPDEST PUSH1 0x40 MLOAD DUP1 SWAP2 SUB SWAP1 REVERT JUMPDEST CALLVALUE PUSH0 PUSH0 DUP4 DUP2 MSTORE PUSH1 0x20 ADD SWAP1 DUP2 MSTORE PUSH1 0x20 ADD PUSH0 KECCAK256 PUSH1 0x2 ADD PUSH0 DUP3 DUP3 SLOAD PUSH2 0x63B SWAP2 SWAP1 PUSH2 0x1073 JUMP JUMPDEST SWAP3 POP POP DUP2 SWAP1 SSTORE POP PUSH32 0xC5B4DF142A4930E9F5F4AE999CAFF9BC2EEE2DEB14046AC4BFF24D1C730962EA DUP2 CALLER CALLVALUE PUSH0 PUSH0 SHL PUSH1 0x40 MLOAD PUSH2 0x679 SWAP5 SWAP4 SWAP3 SWAP2 SWAP1 PUSH2 0x10BE JUMP JUMPDEST PUSH1 0x40 MLOAD DUP1 SWAP2 SUB SWAP1 LOG1 POP JUMP JUMPDEST PUSH0 DUP3 GT DUP1 ISZERO PUSH2 0x695 JUMPI POP PUSH1 0x1 SLOAD DUP3 GT ISZERO JUMPDEST PUSH2 0x6D4 JUMPI PUSH1 0x40 MLOAD PUSH32 0x8C379A000000000000000000000000000000000000000000000000000000000 DUP2 MSTORE PUSH1 0x4 ADD PUSH2 0x6CB SWAP1 PUSH2 0xF2B JUMP JUMPDEST PUSH1 0x40 MLOAD DUP1 SWAP2 SUB SWAP1 REVERT JUMPDEST PUSH0 PUSH0 DUP4 DUP2 MSTORE PUSH1 0x20 ADD SWAP1 DUP2 MSTORE PUSH1 0x20 ADD PUSH0 KECCAK256 PUSH0 ADD PUSH0 SWAP1 SLOAD SWAP1 PUSH2 0x100 EXP SWAP1 DIV PUSH20 0xFFFFFFFFFFFFFFFFFFFFFFFFFFFFFFFFFFFFFFFF AND PUSH20 0xFFFFFFFFFFFFFFFFFFFFFFFFFFFFFFFFFFFFFFFF AND CALLER PUSH20 0xFFFFFFFFFFFFFFFFFFFFFFFFFFFFFFFFFFFFFFFF AND EQ PUSH2 0x773 JUMPI PUSH1 0x40 MLOAD PUSH32 0x8C379A000000000000000000000000000000000000000000000000000000000 DUP2 MSTORE PUSH1 0x4 ADD PUSH2 0x76A SWAP1 PUSH2 0x114B JUMP JUMPDEST PUSH1 0x40 MLOAD DUP1 SWAP2 SUB SWAP1 REVERT JUMPDEST DUP1 PUSH0 PUSH0 DUP5 DUP2 MSTORE PUSH1 0x20 ADD SWAP1 DUP2 MSTORE PUSH1 0x20 ADD PUSH0 KECCAK256 PUSH1 0x3 ADD SWAP1 DUP2 PUSH2 0x793 SWAP2 SWAP1 PUSH2 0xDE4 JUMP JUMPDEST POP PUSH32 0x1FF0EB8CF84684504BF970F9B986EE7A20BB1B1D3733266F2EAA15DFCE21CA51 DUP3 DUP3 PUSH1 0x40 MLOAD PUSH2 0x7C5 SWAP3 SWAP2 SWAP1 PUSH2 0xEB3 JUMP JUMPDEST PUSH1 0x40 MLOAD DUP1 SWAP2 SUB SWAP1 LOG1 POP POP JUMP JUMPDEST PUSH0 PUSH1 0x40 MLOAD SWAP1 POP SWAP1 JUMP JUMPDEST PUSH0 PUSH0 REVERT JUMPDEST PUSH0 PUSH0 REVERT JUMPDEST PUSH0 DUP2 SWAP1 POP SWAP2 SWAP1 POP JUMP JUMPDEST PUSH2 0x7F4 DUP2 PUSH2 0x7E2 JUMP JUMPDEST DUP2 EQ PUSH2 0x7FE JUMPI PUSH0 PUSH0 REVERT JUMPDEST POP JUMP JUMPDEST PUSH0 DUP2 CALLDATALOAD SWAP1 POP PUSH2 0x80F DUP2 PUSH2 0x7EB JUMP JUMPDEST SWAP3 SWAP2 POP POP JUMP JUMPDEST PUSH0 PUSH1 0x20 DUP3 DUP5 SUB SLT ISZERO PUSH2 0x82A JUMPI PUSH2 0x829 PUSH2 0x7DA JUMP JUMPDEST JUMPDEST PUSH0 PUSH2 0x837 DUP5 DUP3 DUP6 ADD PUSH2 0x801 JUMP JUMPDEST SWAP2 POP POP SWAP3 SWAP2 POP POP JUMP JUMPDEST PUSH0 PUSH20 0xFFFFFFFFFFFFFFFFFFFFFFFFFFFFFFFFFFFFFFFF DUP3 AND SWAP1 POP SWAP2 SWAP1 POP JUMP JUMPDEST PUSH0 PUSH2 0x869 DUP3 PUSH2 0x840 JUMP JUMPDEST SWAP1 POP SWAP2 SWAP1 POP JUMP JUMPDEST PUSH2 0x879 DUP2 PUSH2 0x85F JUMP JUMPDEST DUP3 MSTORE POP POP JUMP JUMPDEST PUSH0 DUP2 MLOAD SWAP1 POP SWAP2 SWAP1 POP JUMP JUMPDEST PUSH0 DUP3 DUP3 MSTORE PUSH1 0x20 DUP3 ADD SWAP1 POP SWAP3 SWAP2 POP POP JUMP JUMPDEST DUP3 DUP2 DUP4 MCOPY PUSH0 DUP4 DUP4 ADD MSTORE POP POP POP JUMP JUMPDEST PUSH0 PUSH1 0x1F NOT PUSH1 0x1F DUP4 ADD AND SWAP1 POP SWAP2 SWAP1 POP JUMP JUMPDEST PUSH0 PUSH2 0x8C1 DUP3 PUSH2 0x87F JUMP JUMPDEST PUSH2 0x8CB DUP2 DUP6 PUSH2 0x889 JUMP JUMPDEST SWAP4 POP PUSH2 0x8DB DUP2 DUP6 PUSH1 0x20 DUP7 ADD PUSH2 0x899 JUMP JUMPDEST PUSH2 0x8E4 DUP2 PUSH2 0x8A7 JUMP JUMPDEST DUP5 ADD SWAP2 POP POP SWAP3 SWAP2 POP POP JUMP JUMPDEST PUSH2 0x8F8 DUP2 PUSH2 0x7E2 JUMP JUMPDEST DUP3 MSTORE POP POP JUMP JUMPDEST PUSH0 PUSH1 0x80 DUP3 ADD SWAP1 POP PUSH2 0x911 PUSH0 DUP4 ADD DUP8 PUSH2 0x870 JUMP JUMPDEST DUP2 DUP2 SUB PUSH1 0x20 DUP4 ADD MSTORE PUSH2 0x923 DUP2 DUP7 PUSH2 0x8B7 JUMP JUMPDEST SWAP1 POP PUSH2 0x932 PUSH1 0x40 DUP4 ADD DUP6 PUSH2 0x8EF JUMP JUMPDEST DUP2 DUP2 SUB PUSH1 0x60 DUP4 ADD MSTORE PUSH2 0x944 DUP2 DUP5 PUSH2 0x8B7 JUMP JUMPDEST SWAP1 POP SWAP6 SWAP5 POP POP POP POP POP JUMP JUMPDEST PUSH0 PUSH0 REVERT JUMPDEST PUSH0 PUSH0 REVERT JUMPDEST PUSH32 0x4E487B7100000000000000000000000000000000000000000000000000000000 PUSH0 MSTORE PUSH1 0x41 PUSH1 0x4 MSTORE PUSH1 0x24 PUSH0 REVERT JUMPDEST PUSH2 0x98D DUP3 PUSH2 0x8A7 JUMP JUMPDEST DUP2 ADD DUP2 DUP2 LT PUSH8 0xFFFFFFFFFFFFFFFF DUP3 GT OR ISZERO PUSH2 0x9AC JUMPI PUSH2 0x9AB PUSH2 0x957 JUMP JUMPDEST JUMPDEST DUP1 PUSH1 0x40 MSTORE POP POP POP JUMP JUMPDEST PUSH0 PUSH2 0x9BE PUSH2 0x7D1 JUMP JUMPDEST SWAP1 POP PUSH2 0x9CA DUP3 DUP3 PUSH2 0x984 JUMP JUMPDEST SWAP2 SWAP1 POP JUMP JUMPDEST PUSH0 PUSH8 0xFFFFFFFFFFFFFFFF DUP3 GT ISZERO PUSH2 0x9E9 JUMPI PUSH2 0x9E8 PUSH2 0x957 JUMP JUMPDEST JUMPDEST PUSH2 0x9F2 DUP3 PUSH2 0x8A7 JUMP JUMPDEST SWAP1 POP PUSH1 0x20 DUP2 ADD SWAP1 POP SWAP2 SWAP1 POP JUMP JUMPDEST DUP3 DUP2 DUP4 CALLDATACOPY PUSH0 DUP4 DUP4 ADD MSTORE POP POP POP JUMP JUMPDEST PUSH0 PUSH2 0xA1F PUSH2 0xA1A DUP5 PUSH2 0x9CF JUMP JUMPDEST PUSH2 0x9B5 JUMP JUMPDEST SWAP1 POP DUP3 DUP2 MSTORE PUSH1 0x20 DUP2 ADD DUP5 DUP5 DUP5 ADD GT ISZERO PUSH2 0xA3B JUMPI PUSH2 0xA3A PUSH2 0x953 JUMP JUMPDEST JUMPDEST PUSH2 0xA46 DUP5 DUP3 DUP6 PUSH2 0x9FF JUMP JUMPDEST POP SWAP4 SWAP3 POP POP POP JUMP JUMPDEST PUSH0 DUP3 PUSH1 0x1F DUP4 ADD SLT PUSH2 0xA62 JUMPI PUSH2 0xA61 PUSH2 0x94F JUMP JUMPDEST JUMPDEST DUP2 CALLDATALOAD PUSH2 0xA72 DUP5 DUP3 PUSH1 0x20 DUP7 ADD PUSH2 0xA0D JUMP JUMPDEST SWAP2 POP POP SWAP3 SWAP2 POP POP JUMP JUMPDEST PUSH0 PUSH1 0x20 DUP3 DUP5 SUB SLT ISZERO PUSH2 0xA90 JUMPI PUSH2 0xA8F PUSH2 0x7DA JUMP JUMPDEST JUMPDEST PUSH0 DUP3 ADD CALLDATALOAD PUSH8 0xFFFFFFFFFFFFFFFF DUP2 GT ISZERO PUSH2 0xAAD JUMPI PUSH2 0xAAC PUSH2 0x7DE JUMP JUMPDEST JUMPDEST PUSH2 0xAB9 DUP5 DUP3 DUP6 ADD PUSH2 0xA4E JUMP JUMPDEST SWAP2 POP POP SWAP3 SWAP2 POP POP JUMP JUMPDEST PUSH0 PUSH1 0x20 DUP3 ADD SWAP1 POP PUSH2 0xAD5 PUSH0 DUP4 ADD DUP5 PUSH2 0x8EF JUMP JUMPDEST SWAP3 SWAP2 POP POP JUMP JUMPDEST PUSH0 PUSH0 PUSH1 0x40 DUP4 DUP6 SUB SLT ISZERO PUSH2 0xAF1 JUMPI PUSH2 0xAF0 PUSH2 0x7DA JUMP JUMPDEST JUMPDEST PUSH0 PUSH2 0xAFE DUP6 DUP3 DUP7 ADD PUSH2 0x801 JUMP JUMPDEST SWAP3 POP POP PUSH1 0x20 PUSH2 0xB0F DUP6 DUP3 DUP7 ADD PUSH2 0x801 JUMP JUMPDEST SWAP2 POP POP SWAP3 POP SWAP3 SWAP1 POP JUMP JUMPDEST PUSH0 PUSH0 PUSH1 0x40 DUP4 DUP6 SUB SLT ISZERO PUSH2 0xB2F JUMPI PUSH2 0xB2E PUSH2 0x7DA JUMP JUMPDEST JUMPDEST PUSH0 PUSH2 0xB3C DUP6 DUP3 DUP7 ADD PUSH2 0x801 JUMP JUMPDEST SWAP3 POP POP PUSH1 0x20 DUP4 ADD CALLDATALOAD PUSH8 0xFFFFFFFFFFFFFFFF DUP2 GT ISZERO PUSH2 0xB5D JUMPI PUSH2 0xB5C PUSH2 0x7DE JUMP JUMPDEST JUMPDEST PUSH2 0xB69 DUP6 DUP3 DUP7 ADD PUSH2 0xA4E JUMP JUMPDEST SWAP2 POP POP SWAP3 POP SWAP3 SWAP1 POP JUMP JUMPDEST PUSH32 0x4E487B7100000000000000000000000000000000000000000000000000000000 PUSH0 MSTORE PUSH1 0x22 PUSH1 0x4 MSTORE PUSH1 0x24 PUSH0 REVERT JUMPDEST PUSH0 PUSH1 0x2 DUP3 DIV SWAP1 POP PUSH1 0x1 DUP3 AND DUP1 PUSH2 0xBB7 JUMPI PUSH1 0x7F DUP3 AND SWAP2 POP JUMPDEST PUSH1 0x20 DUP3 LT DUP2 SUB PUSH2 0xBCA JUMPI PUSH2 0xBC9 PUSH2 0xB73 JUMP JUMPDEST JUMPDEST POP SWAP2 SWAP1 POP JUMP JUMPDEST PUSH32 0x4E487B7100000000000000000000000000000000000000000000000000000000 PUSH0 MSTORE PUSH1 0x11 PUSH1 0x4 MSTORE PUSH1 0x24 PUSH0 REVERT JUMPDEST PUSH0 PUSH2 0xC07 DUP3 PUSH2 0x7E2 JUMP JUMPDEST SWAP2 POP PUSH32 0xFFFFFFFFFFFFFFFFFFFFFFFFFFFFFFFFFFFFFFFFFFFFFFFFFFFFFFFFFFFFFFFF DUP3 SUB PUSH2 0xC39 JUMPI PUSH2 0xC38 PUSH2 0xBD0 JUMP JUMPDEST JUMPDEST PUSH1 0x1 DUP3 ADD SWAP1 POP SWAP2 SWAP1 POP JUMP JUMPDEST PUSH0 DUP2 SWAP1 POP DUP2 PUSH0 MSTORE PUSH1 0x20 PUSH0 KECCAK256 SWAP1 POP SWAP2 SWAP1 POP JUMP JUMPDEST PUSH0 PUSH1 0x20 PUSH1 0x1F DUP4 ADD DIV SWAP1 POP SWAP2 SWAP1 POP JUMP JUMPDEST PUSH0 DUP3 DUP3 SHL SWAP1 POP SWAP3 SWAP2 POP POP JUMP JUMPDEST PUSH0 PUSH1 0x8 DUP4 MUL PUSH2 0xCA0 PUSH32 0xFFFFFFFFFFFFFFFFFFFFFFFFFFFFFFFFFFFFFFFFFFFFFFFFFFFFFFFFFFFFFFFF DUP3 PUSH2 0xC65 JUMP JUMPDEST PUSH2 0xCAA DUP7 DUP4 PUSH2 0xC65 JUMP JUMPDEST SWAP6 POP DUP1 NOT DUP5 AND SWAP4 POP DUP1 DUP7 AND DUP5 OR SWAP3 POP POP POP SWAP4 SWAP3 POP POP POP JUMP JUMPDEST PUSH0 DUP2 SWAP1 POP SWAP2 SWAP1 POP JUMP JUMPDEST PUSH0 PUSH2 0xCE5 PUSH2 0xCE0 PUSH2 0xCDB DUP5 PUSH2 0x7E2 JUMP JUMPDEST PUSH2 0xCC2 JUMP JUMPDEST PUSH2 0x7E2 JUMP JUMPDEST SWAP1 POP SWAP2 SWAP1 POP JUMP JUMPDEST PUSH0 DUP2 SWAP1 POP SWAP2 SWAP1 POP JUMP JUMPDEST PUSH2 0xCFE DUP4 PUSH2 0xCCB JUMP JUMPDEST PUSH2 0xD12 PUSH2 0xD0A DUP3 PUSH2 0xCEC JUMP JUMPDEST DUP5 DUP5 SLOAD PUSH2 0xC71 JUMP JUMPDEST DUP3 SSTORE POP POP POP POP JUMP JUMPDEST PUSH0 PUSH0 SWAP1 POP SWAP1 JUMP JUMPDEST PUSH2 0xD29 PUSH2 0xD1A JUMP JUMPDEST PUSH2 0xD34 DUP2 DUP5 DUP5 PUSH2 0xCF5 JUMP JUMPDEST POP POP POP JUMP JUMPDEST JUMPDEST DUP2 DUP2 LT ISZERO PUSH2 0xD57 JUMPI PUSH2 0xD4C PUSH0 DUP3 PUSH2 0xD21 JUMP JUMPDEST PUSH1 0x1 DUP2 ADD SWAP1 POP PUSH2 0xD3A JUMP JUMPDEST POP POP JUMP JUMPDEST PUSH1 0x1F DUP3 GT ISZERO PUSH2 0xD9C JUMPI PUSH2 0xD6D DUP2 PUSH2 0xC44 JUMP JUMPDEST PUSH2 0xD76 DUP5 PUSH2 0xC56 JUMP JUMPDEST DUP2 ADD PUSH1 0x20 DUP6 LT ISZERO PUSH2 0xD85 JUMPI DUP2 SWAP1 POP JUMPDEST PUSH2 0xD99 PUSH2 0xD91 DUP6 PUSH2 0xC56 JUMP JUMPDEST DUP4 ADD DUP3 PUSH2 0xD39 JUMP JUMPDEST POP POP JUMPDEST POP POP POP JUMP JUMPDEST PUSH0 DUP3 DUP3 SHR SWAP1 POP SWAP3 SWAP2 POP POP JUMP JUMPDEST PUSH0 PUSH2 0xDBC PUSH0 NOT DUP5 PUSH1 0x8 MUL PUSH2 0xDA1 JUMP JUMPDEST NOT DUP1 DUP4 AND SWAP2 POP POP SWAP3 SWAP2 POP POP JUMP JUMPDEST PUSH0 PUSH2 0xDD4 DUP4 DUP4 PUSH2 0xDAD JUMP JUMPDEST SWAP2 POP DUP3 PUSH1 0x2 MUL DUP3 OR SWAP1 POP SWAP3 SWAP2 POP POP JUMP JUMPDEST PUSH2 0xDED DUP3 PUSH2 0x87F JUMP JUMPDEST PUSH8 0xFFFFFFFFFFFFFFFF DUP2 GT ISZERO PUSH2 0xE06 JUMPI PUSH2 0xE05 PUSH2 0x957 JUMP JUMPDEST JUMPDEST PUSH2 0xE10 DUP3 SLOAD PUSH2 0xBA0 JUMP JUMPDEST PUSH2 0xE1B DUP3 DUP3 DUP6 PUSH2 0xD5B JUMP JUMPDEST PUSH0 PUSH1 0x20 SWAP1 POP PUSH1 0x1F DUP4 GT PUSH1 0x1 DUP2 EQ PUSH2 0xE4C JUMPI PUSH0 DUP5 ISZERO PUSH2 0xE3A JUMPI DUP3 DUP8 ADD MLOAD SWAP1 POP JUMPDEST PUSH2 0xE44 DUP6 DUP3 PUSH2 0xDC9 JUMP JUMPDEST DUP7 SSTORE POP PUSH2 0xEAB JUMP JUMPDEST PUSH1 0x1F NOT DUP5 AND PUSH2 0xE5A DUP7 PUSH2 0xC44 JUMP JUMPDEST PUSH0 JUMPDEST DUP3 DUP2 LT ISZERO PUSH2 0xE81 JUMPI DUP5 DUP10 ADD MLOAD DUP3 SSTORE PUSH1 0x1 DUP3 ADD SWAP2 POP PUSH1 0x20 DUP6 ADD SWAP5 POP PUSH1 0x20 DUP2 ADD SWAP1 POP PUSH2 0xE5C JUMP JUMPDEST DUP7 DUP4 LT ISZERO PUSH2 0xE9E JUMPI DUP5 DUP10 ADD MLOAD PUSH2 0xE9A PUSH1 0x1F DUP10 AND DUP3 PUSH2 0xDAD JUMP JUMPDEST DUP4 SSTORE POP JUMPDEST PUSH1 0x1 PUSH1 0x2 DUP9 MUL ADD DUP9 SSTORE POP POP POP JUMPDEST POP POP POP POP POP POP JUMP JUMPDEST PUSH0 PUSH1 0x40 DUP3 ADD SWAP1 POP PUSH2 0xEC6 PUSH0 DUP4 ADD DUP6 PUSH2 0x8EF JUMP JUMPDEST DUP2 DUP2 SUB PUSH1 0x20 DUP4 ADD MSTORE PUSH2 0xED8 DUP2 DUP5 PUSH2 0x8B7 JUMP JUMPDEST SWAP1 POP SWAP4 SWAP3 POP POP POP JUMP JUMPDEST PUSH32 0x496E76616C69642070726F6A6563742049440000000000000000000000000000 PUSH0 DUP3 ADD MSTORE POP JUMP JUMPDEST PUSH0 PUSH2 0xF15 PUSH1 0x12 DUP4 PUSH2 0x889 JUMP JUMPDEST SWAP2 POP PUSH2 0xF20 DUP3 PUSH2 0xEE1 JUMP JUMPDEST PUSH1 0x20 DUP3 ADD SWAP1 POP SWAP2 SWAP1 POP JUMP JUMPDEST PUSH0 PUSH1 0x20 DUP3 ADD SWAP1 POP DUP2 DUP2 SUB PUSH0 DUP4 ADD MSTORE PUSH2 0xF42 DUP2 PUSH2 0xF09 JUMP JUMPDEST SWAP1 POP SWAP2 SWAP1 POP JUMP JUMPDEST PUSH32 0x4F6E6C79206F776E65722063616E207769746864726177000000000000000000 PUSH0 DUP3 ADD MSTORE POP JUMP JUMPDEST PUSH0 PUSH2 0xF7D PUSH1 0x17 DUP4 PUSH2 0x889 JUMP JUMPDEST SWAP2 POP PUSH2 0xF88 DUP3 PUSH2 0xF49 JUMP JUMPDEST PUSH1 0x20 DUP3 ADD SWAP1 POP SWAP2 SWAP1 POP JUMP JUMPDEST PUSH0 PUSH1 0x20 DUP3 ADD SWAP1 POP DUP2 DUP2 SUB PUSH0 DUP4 ADD MSTORE PUSH2 0xFAA DUP2 PUSH2 0xF71 JUMP JUMPDEST SWAP1 POP SWAP2 SWAP1 POP JUMP JUMPDEST PUSH32 0x496E73756666696369656E742062616C616E6365000000000000000000000000 PUSH0 DUP3 ADD MSTORE POP JUMP JUMPDEST PUSH0 PUSH2 0xFE5 PUSH1 0x14 DUP4 PUSH2 0x889 JUMP JUMPDEST SWAP2 POP PUSH2 0xFF0 DUP3 PUSH2 0xFB1 JUMP JUMPDEST PUSH1 0x20 DUP3 ADD SWAP1 POP SWAP2 SWAP1 POP JUMP JUMPDEST PUSH0 PUSH1 0x20 DUP3 ADD SWAP1 POP DUP2 DUP2 SUB PUSH0 DUP4 ADD MSTORE PUSH2 0x1012 DUP2 PUSH2 0xFD9 JUMP JUMPDEST SWAP1 POP SWAP2 SWAP1 POP JUMP JUMPDEST PUSH0 PUSH2 0x1023 DUP3 PUSH2 0x7E2 JUMP JUMPDEST SWAP2 POP PUSH2 0x102E DUP4 PUSH2 0x7E2 JUMP JUMPDEST SWAP3 POP DUP3 DUP3 SUB SWAP1 POP DUP2 DUP2 GT ISZERO PUSH2 0x1046 JUMPI PUSH2 0x1045 PUSH2 0xBD0 JUMP JUMPDEST JUMPDEST SWAP3 SWAP2 POP POP JUMP JUMPDEST PUSH0 PUSH1 0x40 DUP3 ADD SWAP1 POP PUSH2 0x105F PUSH0 DUP4 ADD DUP6 PUSH2 0x8EF JUMP JUMPDEST PUSH2 0x106C PUSH1 0x20 DUP4 ADD DUP5 PUSH2 0x8EF JUMP JUMPDEST SWAP4 SWAP3 POP POP POP JUMP JUMPDEST PUSH0 PUSH2 0x107D DUP3 PUSH2 0x7E2 JUMP JUMPDEST SWAP2 POP PUSH2 0x1088 DUP4 PUSH2 0x7E2 JUMP JUMPDEST SWAP3 POP DUP3 DUP3 ADD SWAP1 POP DUP1 DUP3 GT ISZERO PUSH2 0x10A0 JUMPI PUSH2 0x109F PUSH2 0xBD0 JUMP JUMPDEST JUMPDEST SWAP3 SWAP2 POP POP JUMP JUMPDEST PUSH0 DUP2 SWAP1 POP SWAP2 SWAP1 POP JUMP JUMPDEST PUSH2 0x10B8 DUP2 PUSH2 0x10A6 JUMP JUMPDEST DUP3 MSTORE POP POP JUMP JUMPDEST PUSH0 PUSH1 0x80 DUP3 ADD SWAP1 POP PUSH2 0x10D1 PUSH0 DUP4 ADD DUP8 PUSH2 0x8EF JUMP JUMPDEST PUSH2 0x10DE PUSH1 0x20 DUP4 ADD DUP7 PUSH2 0x870 JUMP JUMPDEST PUSH2 0x10EB PUSH1 0x40 DUP4 ADD DUP6 PUSH2 0x8EF JUMP JUMPDEST PUSH2 0x10F8 PUSH1 0x60 DUP4 ADD DUP5 PUSH2 0x10AF JUMP JUMPDEST SWAP6 SWAP5 POP POP POP POP POP JUMP JUMPDEST PUSH32 0x4F6E6C79206F776E65722063616E207570646174652070726F6F660000000000 PUSH0 DUP3 ADD MSTORE POP JUMP JUMPDEST PUSH0 PUSH2 0x1135 PUSH1 0x1B DUP4 PUSH2 0x889 JUMP JUMPDEST SWAP2 POP PUSH2 0x1140 DUP3 PUSH2 0x1101 JUMP JUMPDEST PUSH1 0x20 DUP3 ADD SWAP1 POP SWAP2 SWAP1 POP JUMP JUMPDEST PUSH0 PUSH1 0x20 DUP3 ADD SWAP1 POP DUP2 DUP2 SUB PUSH0 DUP4 ADD MSTORE PUSH2 0x1162 DUP2 PUSH2 0x1129 JUMP JUMPDEST SWAP1 POP SWAP2 SWAP1 POP JUMP INVALID LOG2 PUSH5 0x6970667358 0x22 SLT KECCAK256 PUSH22 0xD17C5402CB095ECC344377938DD5FACA5DE9D8C77CAD 0x2E CALLDATASIZE 0xB6 DIV 0x2F PUSH28 0x1CECBA64736F6C634300081E00330000000000000000000000000000 "
		},
		"gasEstimates": {
			"creation": {
				"codeDepositCost": "902200",
				"executionCost": "933",
				"totalCost": "903133"
			},
			"external": {
				"createProject(string)": "infinite",
				"donate(uint256)": "infinite",
				"projectCount()": "2447",
				"projects(uint256)": "infinite",
				"updateProof(uint256,string)": "infinite",
				"withdraw(uint256,uint256)": "infinite"
			}
		},
		"methodIdentifiers": {
			"createProject(string)": "15ee4df1",
			"donate(uint256)": "f14faf6f",
			"projectCount()": "36fbad26",
			"projects(uint256)": "107046bd",
			"updateProof(uint256,string)": "f500f266",
			"withdraw(uint256,uint256)": "441a3e70"
		}
	},
	"abi": [
		{
			"anonymous": false,
			"inputs": [
				{
					"indexed": false,
					"internalType": "uint256",
					"name": "projectId",
					"type": "uint256"
				},
				{
					"indexed": false,
					"internalType": "address",
					"name": "donor",
					"type": "address"
				},
				{
					"indexed": false,
					"internalType": "uint256",
					"name": "amount",
					"type": "uint256"
				},
				{
					"indexed": false,
					"internalType": "bytes32",
					"name": "txHash",
					"type": "bytes32"
				}
			],
			"name": "DonationReceived",
			"type": "event"
		},
		{
			"anonymous": false,
			"inputs": [
				{
					"indexed": false,
					"internalType": "uint256",
					"name": "projectId",
					"type": "uint256"
				},
				{
					"indexed": false,
					"internalType": "string",
					"name": "proofIpfsHash",
					"type": "string"
				}
			],
			"name": "ProofAdded",
			"type": "event"
		},
		{
			"anonymous": false,
			"inputs": [
				{
					"indexed": false,
					"internalType": "uint256",
					"name": "projectId",
					"type": "uint256"
				},
				{
					"indexed": false,
					"internalType": "uint256",
					"name": "amount",
					"type": "uint256"
				}
			],
			"name": "Withdrawal",
			"type": "event"
		},
		{
			"inputs": [
				{
					"internalType": "string",
					"name": "ipfsHash",
					"type": "string"
				}
			],
			"name": "createProject",
			"outputs": [],
			"stateMutability": "nonpayable",
			"type": "function"
		},
		{
			"inputs": [
				{
					"internalType": "uint256",
					"name": "projectId",
					"type": "uint256"
				}
			],
			"name": "donate",
			"outputs": [],
			"stateMutability": "payable",
			"type": "function"
		},
		{
			"inputs": [],
			"name": "projectCount",
			"outputs": [
				{
					"internalType": "uint256",
					"name": "",
					"type": "uint256"
				}
			],
			"stateMutability": "view",
			"type": "function"
		},
		{
			"inputs": [
				{
					"internalType": "uint256",
					"name": "",
					"type": "uint256"
				}
			],
			"name": "projects",
			"outputs": [
				{
					"internalType": "address",
					"name": "owner",
					"type": "address"
				},
				{
					"internalType": "string",
					"name": "ipfsHash",
					"type": "string"
				},
				{
					"internalType": "uint256",
					"name": "balance",
					"type": "uint256"
				},
				{
					"internalType": "string",
					"name": "proofIpfsHash",
					"type": "string"
				}
			],
			"stateMutability": "view",
			"type": "function"
		},
		{
			"inputs": [
				{
					"internalType": "uint256",
					"name": "projectId",
					"type": "uint256"
				},
				{
					"internalType": "string",
					"name": "ipfsHashProof",
					"type": "string"
				}
			],
			"name": "updateProof",
			"outputs": [],
			"stateMutability": "nonpayable",
			"type": "function"
		},
		{
			"inputs": [
				{
					"internalType": "uint256",
					"name": "projectId",
					"type": "uint256"
				},
				{
					"internalType": "uint256",
					"name": "amount",
					"type": "uint256"
				}
			],
			"name": "withdraw",
			"outputs": [],
			"stateMutability": "nonpayable",
			"type": "function"
		}
	]
}