{
  "_format": "hh-sol-artifact-1",
  "contractName": "DonationPlatform",
  "sourceName": "contracts/DonationPlatform.sol",
  "abi": [
    {
      "anonymous": false,
      "inputs": [
        {
          "indexed": true,
          "internalType": "uint256",
          "name": "projectId",
          "type": "uint256"
        },
        {
          "indexed": false,
          "internalType": "address",
          "name": "donor",
          "type": "address"
        },
        {
          "indexed": false,
          "internalType": "uint256",
          "name": "amount",
          "type": "uint256"
        }
      ],
      "name": "DonationReceived",
      "type": "event"
    },
    {
      "anonymous": false,
      "inputs": [
        {
          "indexed": true,
          "internalType": "uint256",
          "name": "projectId",
          "type": "uint256"
        },
        {
          "indexed": false,
          "internalType": "address",
          "name": "owner",
          "type": "address"
        },
        {
          "indexed": false,
          "internalType": "uint256",
          "name": "amount",
          "type": "uint256"
        }
      ],
      "name": "FundsWithdrawn",
      "type": "event"
    },
    {
      "anonymous": false,
      "inputs": [
        {
          "indexed": true,
          "internalType": "uint256",
          "name": "projectId",
          "type": "uint256"
        },
        {
          "indexed": false,
          "internalType": "address",
          "name": "owner",
          "type": "address"
        },
        {
          "indexed": false,
          "internalType": "string",
          "name": "descriptionHash",
          "type": "string"
        }
      ],
      "name": "ProjectCreated",
      "type": "event"
    },
    {
      "anonymous": false,
      "inputs": [
        {
          "indexed": true,
          "internalType": "uint256",
          "name": "projectId",
          "type": "uint256"
        },
        {
          "indexed": false,
          "internalType": "string",
          "name": "proofHash",
          "type": "string"
        }
      ],
      "name": "ProofUpdated",
      "type": "event"
    },
    {
      "inputs": [
        {
          "internalType": "string",
          "name": "_descriptionHash",
          "type": "string"
        }
      ],
      "name": "createProject",
      "outputs": [],
      "stateMutability": "nonpayable",
      "type": "function"
    },
    {
      "inputs": [
        {
          "internalType": "uint256",
          "name": "_projectId",
          "type": "uint256"
        }
      ],
      "name": "donate",
      "outputs": [],
      "stateMutability": "payable",
      "type": "function"
    },
    {
      "inputs": [
        {
          "internalType": "uint256",
          "name": "_projectId",
          "type": "uint256"
        }
      ],
      "name": "getProject",
      "outputs": [
        {
          "internalType": "address",
          "name": "owner",
          "type": "address"
        },
        {
          "internalType": "string",
          "name": "descriptionHash",
          "type": "string"
        },
        {
          "internalType": "string",
          "name": "proofHash",
          "type": "string"
        },
        {
          "internalType": "uint256",
          "name": "balance",
          "type": "uint256"
        }
      ],
      "stateMutability": "view",
      "type": "function"
    },
    {
      "inputs": [],
      "name": "nextProjectId",
      "outputs": [
        {
          "internalType": "uint256",
          "name": "",
          "type": "uint256"
        }
      ],
      "stateMutability": "view",
      "type": "function"
    },
    {
      "inputs": [
        {
          "internalType": "uint256",
          "name": "",
          "type": "uint256"
        }
      ],
      "name": "projects",
      "outputs": [
        {
          "internalType": "address",
          "name": "owner",
          "type": "address"
        },
        {
          "internalType": "string",
          "name": "descriptionHash",
          "type": "string"
        },
        {
          "internalType": "string",
          "name": "proofHash",
          "type": "string"
        },
        {
          "internalType": "uint256",
          "name": "balance",
          "type": "uint256"
        }
      ],
      "stateMutability": "view",
      "type": "function"
    },
    {
      "inputs": [
        {
          "internalType": "uint256",
          "name": "_projectId",
          "type": "uint256"
        },
        {
          "internalType": "string",
          "name": "_proofHash",
          "type": "string"
        }
      ],
      "name": "updateProof",
      "outputs": [],
      "stateMutability": "nonpayable",
      "type": "function"
    },
    {
      "inputs": [
        {
          "internalType": "uint256",
          "name": "_projectId",
          "type": "uint256"
        },
        {
          "internalType": "uint256",
          "name": "_amount",
          "type": "uint256"
        }
      ],
      "name": "withdraw",
      "outputs": [],
      "stateMutability": "nonpayable",
      "type": "function"
    }
  ],
  "bytecode": "0x60806040526001805534801561001457600080fd5b506114af806100246000396000f3fe6080604052600436106100705760003560e01c8063e935b7b11161004e578063e935b7b114610107578063f0f3f2c814610132578063f14faf6f14610172578063f500f2661461018e57610070565b8063107046bd1461007557806315ee4df1146100b5578063441a3e70146100de575b600080fd5b34801561008157600080fd5b5061009c60048036038101906100979190610a6a565b6101b7565b6040516100ac9493929190610b77565b60405180910390f35b3480156100c157600080fd5b506100dc60048036038101906100d79190610cff565b610317565b005b3480156100ea57600080fd5b5061010560048036038101906101009190610d48565b61044d565b005b34801561011357600080fd5b5061011c6105f9565b6040516101299190610d88565b60405180910390f35b34801561013e57600080fd5b5061015960048036038101906101549190610a6a565b6105ff565b6040516101699493929190610b77565b60405180910390f35b61018c60048036038101906101879190610a6a565b6107ce565b005b34801561019a57600080fd5b506101b560048036038101906101b09190610da3565b61091e565b005b60006020528060005260406000206000915090508060000160009054906101000a900473ffffffffffffffffffffffffffffffffffffffff169080600101805461020090610e2e565b80601f016020809104026020016040519081016040528092919081815260200182805461022c90610e2e565b80156102795780601f1061024e57610100808354040283529160200191610279565b820191906000526020600020905b81548152906001019060200180831161025c57829003601f168201915b50505050509080600201805461028e90610e2e565b80601f01602080910402602001604051908101604052809291908181526020018280546102ba90610e2e565b80156103075780601f106102dc57610100808354040283529160200191610307565b820191906000526020600020905b8154815290600101906020018083116102ea57829003601f168201915b5050505050908060030154905084565b6000600154905060405180608001604052803373ffffffffffffffffffffffffffffffffffffffff168152602001838152602001604051806020016040528060008152508152602001600081525060008083815260200190815260200160002060008201518160000160006101000a81548173ffffffffffffffffffffffffffffffffffffffff021916908373ffffffffffffffffffffffffffffffffffffffff16021790555060208201518160010190816103d3919061100b565b5060408201518160020190816103e9919061100b565b50606082015181600301559050506001600081548092919061040a9061110c565b9190505550807f9d9ec461f162f3f4fdb9f6d189bfe13c59e48d8acd23a4c3bfcf7cc0fe4e84ed3384604051610441929190611154565b60405180910390a25050565b3373ffffffffffffffffffffffffffffffffffffffff1660008084815260200190815260200160002060000160009054906101000a900473ffffffffffffffffffffffffffffffffffffffff1673ffffffffffffffffffffffffffffffffffffffff16146104f0576040517f08c379a00000000000000000000000000000000000000000000000000000000081526004016104e7906111d0565b60405180910390fd5b60008083815260200190815260200160002060030154811115610548576040517f08c379a000000000000000000000000000000000000000000000000000000000815260040161053f9061123c565b60405180910390fd5b80600080848152602001908152602001600020600301600082825461056d919061125c565b925050819055503373ffffffffffffffffffffffffffffffffffffffff166108fc829081150290604051600060405180830381858888f193505050501580156105ba573d6000803e3d6000fd5b50817ff440aec6b52895984d061d622e6edeba6210f7c3e059be920663140c084560d733836040516105ed929190611290565b60405180910390a25050565b60015481565b60006060806000806000808781526020019081526020016000206040518060800160405290816000820160009054906101000a900473ffffffffffffffffffffffffffffffffffffffff1673ffffffffffffffffffffffffffffffffffffffff1673ffffffffffffffffffffffffffffffffffffffff16815260200160018201805461068a90610e2e565b80601f01602080910402602001604051908101604052809291908181526020018280546106b690610e2e565b80156107035780601f106106d857610100808354040283529160200191610703565b820191906000526020600020905b8154815290600101906020018083116106e657829003601f168201915b5050505050815260200160028201805461071c90610e2e565b80601f016020809104026020016040519081016040528092919081815260200182805461074890610e2e565b80156107955780601f1061076a57610100808354040283529160200191610795565b820191906000526020600020905b81548152906001019060200180831161077857829003601f168201915b50505050508152602001600382015481525050905080600001518160200151826040015183606001519450945094509450509193509193565b60003411610811576040517f08c379a00000000000000000000000000000000000000000000000000000000081526004016108089061132b565b60405180910390fd5b600073ffffffffffffffffffffffffffffffffffffffff1660008083815260200190815260200160002060000160009054906101000a900473ffffffffffffffffffffffffffffffffffffffff1673ffffffffffffffffffffffffffffffffffffffff16036108b5576040517f08c379a00000000000000000000000000000000000000000000000000000000081526004016108ac90611397565b60405180910390fd5b3460008083815260200190815260200160002060030160008282546108da91906113b7565b92505081905550807f0b5b4c52969ff7329ecf7ee536409fda87812b15a8622bc6e8cdeab3aee14a263334604051610913929190611290565b60405180910390a250565b3373ffffffffffffffffffffffffffffffffffffffff1660008084815260200190815260200160002060000160009054906101000a900473ffffffffffffffffffffffffffffffffffffffff1673ffffffffffffffffffffffffffffffffffffffff16146109c1576040517f08c379a00000000000000000000000000000000000000000000000000000000081526004016109b890611437565b60405180910390fd5b8060008084815260200190815260200160002060020190816109e3919061100b565b50817f91c6771927e165f91828e99858489d1632a71d2cae327b77ad0874c8747247ae82604051610a149190611457565b60405180910390a25050565b6000604051905090565b600080fd5b600080fd5b6000819050919050565b610a4781610a34565b8114610a5257600080fd5b50565b600081359050610a6481610a3e565b92915050565b600060208284031215610a8057610a7f610a2a565b5b6000610a8e84828501610a55565b91505092915050565b600073ffffffffffffffffffffffffffffffffffffffff82169050919050565b6000610ac282610a97565b9050919050565b610ad281610ab7565b82525050565b600081519050919050565b600082825260208201905092915050565b60005b83811015610b12578082015181840152602081019050610af7565b60008484015250505050565b6000601f19601f8301169050919050565b6000610b3a82610ad8565b610b448185610ae3565b9350610b54818560208601610af4565b610b5d81610b1e565b840191505092915050565b610b7181610a34565b82525050565b6000608082019050610b8c6000830187610ac9565b8181036020830152610b9e8186610b2f565b90508181036040830152610bb28185610b2f565b9050610bc16060830184610b68565b95945050505050565b600080fd5b600080fd5b7f4e487b7100000000000000000000000000000000000000000000000000000000600052604160045260246000fd5b610c0c82610b1e565b810181811067ffffffffffffffff82111715610c2b57610c2a610bd4565b5b80604052505050565b6000610c3e610a20565b9050610c4a8282610c03565b919050565b600067ffffffffffffffff821115610c6a57610c69610bd4565b5b610c7382610b1e565b9050602081019050919050565b82818337600083830152505050565b6000610ca2610c9d84610c4f565b610c34565b905082815260208101848484011115610cbe57610cbd610bcf565b5b610cc9848285610c80565b509392505050565b600082601f830112610ce657610ce5610bca565b5b8135610cf6848260208601610c8f565b91505092915050565b600060208284031215610d1557610d14610a2a565b5b600082013567ffffffffffffffff811115610d3357610d32610a2f565b5b610d3f84828501610cd1565b91505092915050565b60008060408385031215610d5f57610d5e610a2a565b5b6000610d6d85828601610a55565b9250506020610d7e85828601610a55565b9150509250929050565b6000602082019050610d9d6000830184610b68565b92915050565b60008060408385031215610dba57610db9610a2a565b5b6000610dc885828601610a55565b925050602083013567ffffffffffffffff811115610de957610de8610a2f565b5b610df585828601610cd1565b9150509250929050565b7f4e487b7100000000000000000000000000000000000000000000000000000000600052602260045260246000fd5b60006002820490506001821680610e4657607f821691505b602082108103610e5957610e58610dff565b5b50919050565b60008190508160005260206000209050919050565b60006020601f8301049050919050565b600082821b905092915050565b600060088302610ec17fffffffffffffffffffffffffffffffffffffffffffffffffffffffffffffffff82610e84565b610ecb8683610e84565b95508019841693508086168417925050509392505050565b6000819050919050565b6000610f08610f03610efe84610a34565b610ee3565b610a34565b9050919050565b6000819050919050565b610f2283610eed565b610f36610f2e82610f0f565b848454610e91565b825550505050565b600090565b610f4b610f3e565b610f56818484610f19565b505050565b5b81811015610f7a57610f6f600082610f43565b600181019050610f5c565b5050565b601f821115610fbf57610f9081610e5f565b610f9984610e74565b81016020851015610fa8578190505b610fbc610fb485610e74565b830182610f5b565b50505b505050565b600082821c905092915050565b6000610fe260001984600802610fc4565b1980831691505092915050565b6000610ffb8383610fd1565b9150826002028217905092915050565b61101482610ad8565b67ffffffffffffffff81111561102d5761102c610bd4565b5b6110378254610e2e565b611042828285610f7e565b600060209050601f8311600181146110755760008415611063578287015190505b61106d8582610fef565b8655506110d5565b601f19841661108386610e5f565b60005b828110156110ab57848901518255600182019150602085019450602081019050611086565b868310156110c857848901516110c4601f891682610fd1565b8355505b6001600288020188555050505b505050505050565b7f4e487b7100000000000000000000000000000000000000000000000000000000600052601160045260246000fd5b600061111782610a34565b91507fffffffffffffffffffffffffffffffffffffffffffffffffffffffffffffffff8203611149576111486110dd565b5b600182019050919050565b60006040820190506111696000830185610ac9565b818103602083015261117b8184610b2f565b90509392505050565b7f4f6e6c79206f776e65722063616e207769746864726177000000000000000000600082015250565b60006111ba601783610ae3565b91506111c582611184565b602082019050919050565b600060208201905081810360008301526111e9816111ad565b9050919050565b7f496e73756666696369656e742062616c616e6365000000000000000000000000600082015250565b6000611226601483610ae3565b9150611231826111f0565b602082019050919050565b6000602082019050818103600083015261125581611219565b9050919050565b600061126782610a34565b915061127283610a34565b925082820390508181111561128a576112896110dd565b5b92915050565b60006040820190506112a56000830185610ac9565b6112b26020830184610b68565b9392505050565b7f446f6e6174696f6e20616d6f756e74206d75737420626520677265617465722060008201527f7468616e20300000000000000000000000000000000000000000000000000000602082015250565b6000611315602683610ae3565b9150611320826112b9565b604082019050919050565b6000602082019050818103600083015261134481611308565b9050919050565b7f50726f6a65637420646f6573206e6f7420657869737400000000000000000000600082015250565b6000611381601683610ae3565b915061138c8261134b565b602082019050919050565b600060208201905081810360008301526113b081611374565b9050919050565b60006113c282610a34565b91506113cd83610a34565b92508282019050808211156113e5576113e46110dd565b5b92915050565b7f4f6e6c79206f776e65722063616e207570646174652070726f6f660000000000600082015250565b6000611421601b83610ae3565b915061142c826113eb565b602082019050919050565b6000602082019050818103600083015261145081611414565b9050919050565b600060208201905081810360008301526114718184610b2f565b90509291505056fea2646970667358221220a74a99e3d4e3f8b596e446ceb5cbe716ced51fbe143b278cff09bb49e65d17f164736f6c63430008140033",
  "linkReferences": {},
  "deployedLinkReferences": {}
}